{
  "contracts/SampleContract.sol": {
    "SampleContract": {
      "abi": [
        {
          "anonymous": false,
          "inputs": [
            {
              "indexed": false,
              "internalType": "string",
              "name": "message",
              "type": "string"
            }
          ],
          "name": "Greet",
          "type": "event"
        },
        {
          "inputs": [],
          "name": "greet",
          "outputs": [],
          "stateMutability": "nonpayable",
          "type": "function"
        }
      ],
      "evm": {
        "bytecode": {
          "linkReferences": {},
          "object": "608060405234801561001057600080fd5b5061010d806100206000396000f3fe6080604052348015600f57600080fd5b506004361060285760003560e01c8063cfae321714602d575b600080fd5b60336035565b005b7fefdeaaf566f7751d16a12c7fa8909eb74120f42cba334d07dd5246c48f1fba8160405160609060a8565b60405180910390a1565b60006075600c8360c6565b91507f48656c6c6f20576f726c642100000000000000000000000000000000000000006000830152602082019050919050565b6000602082019050818103600083015260bf81606a565b9050919050565b60008282526020820190509291505056fea26469706673582212200a84cca8b9e080ec4558e4ff3cbbe23afb5c86a731bf7ff9e6935459e2fb992464736f6c63430008000033",
          "opcodes": "PUSH1 0x80 PUSH1 0x40 MSTORE CALLVALUE DUP1 ISZERO PUSH2 0x10 JUMPI PUSH1 0x0 DUP1 REVERT JUMPDEST POP PUSH2 0x10D DUP1 PUSH2 0x20 PUSH1 0x0 CODECOPY PUSH1 0x0 RETURN INVALID PUSH1 0x80 PUSH1 0x40 MSTORE CALLVALUE DUP1 ISZERO PUSH1 0xF JUMPI PUSH1 0x0 DUP1 REVERT JUMPDEST POP PUSH1 0x4 CALLDATASIZE LT PUSH1 0x28 JUMPI PUSH1 0x0 CALLDATALOAD PUSH1 0xE0 SHR DUP1 PUSH4 0xCFAE3217 EQ PUSH1 0x2D JUMPI JUMPDEST PUSH1 0x0 DUP1 REVERT JUMPDEST PUSH1 0x33 PUSH1 0x35 JUMP JUMPDEST STOP JUMPDEST PUSH32 0xEFDEAAF566F7751D16A12C7FA8909EB74120F42CBA334D07DD5246C48F1FBA81 PUSH1 0x40 MLOAD PUSH1 0x60 SWAP1 PUSH1 0xA8 JUMP JUMPDEST PUSH1 0x40 MLOAD DUP1 SWAP2 SUB SWAP1 LOG1 JUMP JUMPDEST PUSH1 0x0 PUSH1 0x75 PUSH1 0xC DUP4 PUSH1 0xC6 JUMP JUMPDEST SWAP2 POP PUSH32 0x48656C6C6F20576F726C64210000000000000000000000000000000000000000 PUSH1 0x0 DUP4 ADD MSTORE PUSH1 0x20 DUP3 ADD SWAP1 POP SWAP2 SWAP1 POP JUMP JUMPDEST PUSH1 0x0 PUSH1 0x20 DUP3 ADD SWAP1 POP DUP2 DUP2 SUB PUSH1 0x0 DUP4 ADD MSTORE PUSH1 0xBF DUP2 PUSH1 0x6A JUMP JUMPDEST SWAP1 POP SWAP2 SWAP1 POP JUMP JUMPDEST PUSH1 0x0 DUP3 DUP3 MSTORE PUSH1 0x20 DUP3 ADD SWAP1 POP SWAP3 SWAP2 POP POP JUMP INVALID LOG2 PUSH5 0x6970667358 0x22 SLT KECCAK256 EXP DUP5 0xCC 0xA8 0xB9 0xE0 DUP1 0xEC GASLIMIT PC 0xE4 SELFDESTRUCT EXTCODECOPY 0xBB 0xE2 GASPRICE 0xFB 0x5C DUP7 0xA7 BALANCE 0xBF PUSH32 0xF9E6935459E2FB992464736F6C63430008000033000000000000000000000000 "
        },
        "methodIdentifiers": {
          "greet()": "cfae3217"
        }
      }
    }
  }
}